S01700004763634170706C69636174696F6E322E737265635A
S11300000C942A000C94EA010C9411020C9438020A
S11300100C9447000C9447000C9447000C94470040
S11300200C9447000C9447000C9447000C94470030
S11300300C9447000C9447000C9447000C94470020
S11300400C9447000C9447000C9447000C94470010
S11300500C94470011241FBECFE5D8E0DEBFCDBF0E
S113006010E0A0E6B0E0E0E4F5E002C005900D92F7
S1130070A036B107D9F720E0A0E6B0E001C01D9298
S1130080A636B207E1F70E9488020C949E020C94F3
S11300900000442319F04130C9F10895813091F0F2
S11300A028F08230D9F0833029F108952AB381E011
S11300B090E002C0880F991F6A95E2F78095822329
S11300C08ABB089527B381E090E002C0880F991F8E
S11300D06A95E2F78095822387BB089524B381E073
S11300E090E002C0880F991F6A95E2F780958223F9
S11300F084BB089521B381E090E002C0880F991F6A
S11301006A95E2F78095822381BB0895813089F056
S113011028F08230C9F0833011F108952AB381E0C8
S113012090E002C0880F991F6A95E2F7822B8ABB80
S1130130089527B381E090E002C0880F991F6A9563
S1130140E2F7822B87BB089524B381E090E002C0DC
S1130150880F991F6A95E2F7822B84BB089521B317
S113016081E090E002C0880F991F6A95E2F7822B24
S113017081BB0895442319F04130C9F108958130B9
S113018091F028F08230D9F0833029F108952BB30F
S113019081E090E002C0880F991F6A95E2F780958C
S11301A082238BBB089528B381E090E002C0880FBE
S11301B0991F6A95E2F78095822388BB089525B339
S11301C081E090E002C0880F991F6A95E2F780955C
S11301D0822385BB089522B381E090E002C0880F9A
S11301E0991F6A95E2F78095822382BB0895813036
S11301F089F028F08230C9F0833011F108952BB3CF
S113020081E090E002C0880F991F6A95E2F7822B83
S11302108BBB089528B381E090E002C0880F991F3A
S11302206A95E2F7822B88BB089525B381E090E0BC
S113023002C0880F991F6A95E2F7822B85BB089547
S113024022B381E090E002C0880F991F6A95E2F71B
S1130250822B82BB0895813089F028F08230C9F066
S1130260833011F108952BB381E090E002C0880F30
S1130270991F6A95E2F782278BBB089528B381E022
S113028090E002C0880F991F6A95E2F7822788BB25
S1130290089525B381E090E002C0880F991F6A9504
S11302A0E2F7822785BB089522B381E090E002C083
S11302B0880F991F6A95E2F7822782BB08958130DF
S11302C049F120F0823009F449C00895613069F0A1
S11302D028F0623089F06330B1F0089585B78E7FDD
S11302E085BF85B78D7F85BF089585B7816085BF3C
S11302F085B78D7F85BF089585B78E7F85BF85B708
S1130300826085BF089585B7816085BF85B78260A7
S113031085BF0895613069F028F0623089F0633058
S1130320B1F0089585B78B7F85BF85B7877F85BF7B
S1130330089585B7846085BF85B7877F85BF089595
S113034085B78B7F85BF85B7886085BF089585B7DE
S1130350846085BF85B7886085BF0895623019F0D1
S1130360633029F0089584B78F7B84BF089584B7E0
S1130370806484BF0895CF93C82F0E945F01C13069
S113038041F018F0C23049F00BC08BB780648BBFCA
S113039007C08BB780688BBF03C08BB780628BBFED
S11303A0CF91089561157105A1F0813049F018F0DD
S11303B0823059F008957093650060936400089545
S11303C0709363006093620008957093610060937A
S11303D0600008951F920F920FB60F9211242F936D
S11303E03F934F935F936F937F938F939F93AF93B9
S11303F0BF93EF93FF93E0916400F091650009953A
S1130400FF91EF91BF91AF919F918F917F916F91E8
S11304105F914F913F912F910F900FBE0F901F90BE
S113042018951F920F920FB60F9211242F933F939A
S11304304F935F936F937F938F939F93AF93BF93E8
S1130440EF93FF93E0916200F09163000995FF91AF
S1130450EF91BF91AF919F918F917F916F915F9138
S11304604F913F912F910F900FBE0F901F901895B1
S11304701F920F920FB60F9211242F933F934F9315
S11304805F936F937F938F939F93AF93BF93EF93F8
S1130490FF93E0916000F09161000995FF91EF9165
S11304A0BF91AF919F918F917F916F915F914F9188
S11304B03F912F910F900FBE0F901F9018958FB7FB
S11304C080688FBF08951F93CF93DF93C82FD62FD3
S11304D0142F41E00E944900112319F0113039F022
S11304E00BC040E06D2F8C2F0E94BA0005C041E084
S11304F06D2F8C2F0E94BA00DF91CF911F91089528
S11305000E942B01089563E081E00E948002089517
S113051040E062E083E00E94490040E063E081E063
S11305200E9463020E945F0263E080E00E94BB01BC
S113053063E872E080E00E94D201FFCFF894FFCF1D
S9030000FC
